:1000000012C02CC02BC02AC029C028C027C026C0BF
:1000100025C024C023C004C221C020C01FC01EC0F0
:100020001DC01CC01BC011241FBECFE5D4E0DEBF25
:10003000CDBF10E0A0E6B0E0ECEAF4E002C005902D
:100040000D92A03CB107D9F710E0A0ECB0E001C0E0
:100050001D92A33CB107E1F7E0D126C2D1CF482FD2
:1000600037B381E090E0042E02C0880F991F0A94F4
:10007000E2F7282F2095232327BB26B330E08223E5
:10008000932302C0959587954A95E2F70895482FE6
:1000900034B381E090E0042E02C0880F991F0A94C7
:1000A000E2F7282F2095232324BB23B330E08223BB
:1000B000932302C0959587954A95E2F70895482FB6
:1000C00031B381E090E0042E02C0880F991F0A949A
:1000D000E2F7282F2095232321BB20B330E0822391
:1000E000932302C0959587954A95E2F7089597B3B3
:1000F00021E030E002C0220F331F8A95E2F7922BF5
:1001000097BB662319F088B3282B03C088B32095CA
:10011000282328BB089594B321E030E002C0220FC9
:10012000331F8A95E2F7922B94BB662319F085B3AF
:10013000282B03C085B32095282325BB089591B3B0
:1001400021E030E002C0220F331F8A95E2F7922BA4
:1001500091BB662319F082B3282B03C082B320958C
:10016000282322BB08958FB581608FBD8EB5816035
:100170008EBD0895482F8FEF90E09C01629FC001D3
:10018000639F900D729F900D112464E670E078D10A
:100190009B018091C200882349F48FB581608FBD97
:1001A0008EB581608EBD81E08093C200413049F4FC
:1001B0008FB580688FBDB99A3BBD2ABD2093C00022
:1001C0000895423049F48FB580628FBDBA9A39BD27
:1001D00028BD2093C1000895433081F48FB5806815
:1001E0008FBDB99A3BBD2ABD2093C0008FB58062F8
:1001F0008FBDBA9A39BD28BD2093C10008951F93C1
:10020000182F9B01161617068CF4B4DF113031F449
:1002100087E061E094DF80E060E014C01230E1F438
:1002200085E060E08CDF86E061E015C06627772717
:10023000621B730B9FDF113039F487E060E07FDFD2
:1002400080E061E054DF08C0123031F485E061E005
:1002500076DF86E060E073DF1F9108951F93182F0B
:1002600060E070E087DF113011F0133031F487E087
:1002700060E065DF80E060E03ADF1250123030F479
:1002800085E060E05CDF86E060E059DF1F91089563
:1002900083E060E070E06EDF87E060E050DF80E0E8
:1002A00060E025DF85E060E04ADF86E060E047DF70
:1002B00008950F931F938C0181E0B801A0DF82E0C5
:1002C000B8019DDF1F910F9108950F931F93002791
:1002D0001127081B190B81E0B80191DF82E0B801FA
:1002E0008EDF1F910F9108950F931F938C0181E072
:1002F000B80185DF109501951F4F82E0B8017FDFBF
:100300001F910F9108950F931F938C0166277727F4
:10031000681B790B81E073DF82E0B80170DF1F9109
:100320000F9108958CE089B910BC80B5866880BDB6
:100330008AB188698AB908955F9BFECF8CB1089510
:100340005D9BFECF8CB9089520E030E008C05D9B36
:10035000FECFECB92536310541F02F5F3F4FFC0150
:10036000E20FF31FE081EA3291F708958091BC001B
:100370009091BD0097FD07C08091BC009091BD0099
:10038000863691051CF080E690E030C08091BE007A
:10039000853631F48091BC009091BD00B4DF28C057
:1003A0008091BE00873631F48091BC009091BD00F1
:1003B00080DF1EC08091BE00863631F48091BC0083
:1003C0009091BD0082DF14C08091BE00883631F468
:1003D0008091BC009091BD0087DF0AC08091BE0073
:1003E000893611F455DF04C084E890E0ADDF08954C
:1003F0008AEA90E0A9DF5D9BFECF8BE58CB9809106
:10040000BE005D9BFECF8CB95D9BFECF8DE58CB9A8
:100410005D9BFECF8AE08CB9089584DF7894FFCF8E
:100420001F920F920FB60F9211242F933F934F9369
:100430005F936F937F938F939F93AF93BF93EF934C
:10044000FF935F9BFECF8CB1853630F490E09093A4
:10045000BD008093BC0002C08093BE0087DFFF9187
:10046000EF91BF91AF919F918F917F916F915F912C
:100470004F913F912F910F900FBE0F901F901895A5
:10048000AA1BBB1B51E107C0AA1FBB1FA617B707BA
:1004900010F0A61BB70B881F991F5A95A9F78095D6
:0C04A0009095BC01CD010895F894FFCFA9
:1004AC004869626121203A204E656D206D65676652
:1004BC00656C656CF52050574D20E97274E96B2121
:1004CC000A202A004869626121203A204E656D207D
:1004DC006D656766656C656CF5206972E16E7920F7
:1004EC00E97274E96B210A202A00DC7A656E657466
:1004FC0020666F676164766121202A000000650028
:00000001FF
